:10000000BFCB3CC0BFCB3AC001C338C037C036C03D
:1000100035C034C033C032C031C030C02FC001023F
:1000200004081020010101010101003600380037E9
:10003000B60111241FBECFE5D2E0DEBFCDBF10E078
:10004000A0E6B0E0EAE4F9E002C005900D92A8381D
:10005000B107D9F720E0A8E8B0E001C01D92AA3DA1
:10006000B207E1F710E0C2E3D0E003C02297FE013F
:1000700066D4C033D107D1F724D465C4C1CFF89476
:1000800081E008958FBF089520E044E060E670E0CD
:1000900089E890E0F4D16CEB72E080E090E021D34D
:1000A00020E044E064E670E089E890E0E8D168ECA4
:1000B00070E080E090E015C38091880020E044E08B
:1000C000882331F068E670E089E890E0D8D105C077
:1000D0006CE670E089E890E0D2D18091880091E0F0
:1000E000892780938800089560E080E059D360E01C
:1000F00082E056D362E081E053D341E067E089E8D3
:1001000090E04CD18FEF9FEFD7CF0F9397FD09C0B1
:1001100000E024E040E0BC0189E890E05ED20F916D
:1001200008950F91C9CFCF93CFB7A9DF8823F1F0FE
:1001300010928C0090918C009434C0F4B09B02C05B
:10014000B099FCCFE0918C00F0E096B3E357FF4FFD
:100150009083B09902C0B09BFCCF90918C009F5FC0
:1001600090938C0090918C00943440F38C2FCF911D
:1001700089CF90E002C0959587956A95E2F78170E6
:1001800008950F931F93CF93DF93082F11E0C82F8B
:10019000D0E02796202F30E0C217D30754F0F901A2
:1001A000E357FF4F808162E0E4DF110F18270F5FF4
:1001B000F1CF812FDF91CF911F910F910895FF9281
:1001C0000F931F93CF93DF93F82E80E090E0CF2D15
:1001D000D0E028962F2D30E0C217D30774F08C01A1
:1001E000000F111FF901E357FF4F808162E0C1DF6B
:1001F00098012827C901F394EDCFDF91CF911F918A
:100200000F91FF9008958E7F9927969587958E354B
:10021000910569F180F48D30910579F118F4059715
:10022000A9F131C087319105F9F08F34910559F565
:1002300083E090E008958D37910599F048F48F356B
:100240009105F1F08B369105F1F482E090E008958C
:100250008E37910579F08F379105A9F488E090E009
:10026000089580E090E0089584E090E0089585E0AE
:1002700090E0089586E090E0089587E090E008958A
:1002800089E090E008958FEF9FEF089581E090E07E
:100290000895EF92FF920F931F93CF93DF9380E027
:1002A00070DF803AE9F588E08ADFADDF7C018FEF0F
:1002B000E816F806C1F181E164DF813A19F02DEF0B
:1002C0003FEF3FC089E17BDF9EDF8C010F3F8FEF67
:1002D0001807A9F382E255DF823A41F58AE26FDF1F
:1002E00092DFEC01CF3F8FEFD80719F183E349DFAD
:1002F000833A11F58BE363DF809709F5C70168EE58
:1003000073E0E3D29C01C80164E670E0DED2280FFE
:10031000391FCE016AE070E0D8D2280F391F11C012
:100320002FEF3FEF0EC02EEF3FEF0BC02BEF3FEF55
:1003300008C02AEF3FEF05C029EF3FEF02C028EFCA
:100340003FEFC901DF91CF911F910F91FF90EF9087
:10035000089581E08BD2019709F496CEE4DE6CE239
:1003600071E080E090E0BDD194DFCFCE44E063E067
:1003700089E890E000C0CF93DF93EC01862F68837B
:10038000498360E00DD260E089810AD260E0888113
:100390003ED260E08981DF91CF9139C267704423FA
:1003A00011F028E001C020E0622BFC016283089577
:1003B00061E0FC018181F4D184E690E0B6C1CF9385
:1003C000DF93EC0161E08981EBD184E690E0ADD16F
:1003D00060E08881E5D184E690E0A7D160E0898182
:1003E000DFD184E690E0DF91CF919FC10F931F93FF
:1003F000CF93DF93EC01062F18E061E08881D0D124
:1004000084E690E092D100FF02C060E001C061E0AC
:100410008981C6D184E690E088D160E08881C0D12E
:1004200084E690E082D10695115039F761E0888129
:10043000B7D160E08981B4D184E690E076D160E004
:100440008881AED184E690E070D189810FD2182FD7
:10045000811103C061E08981A3D184E690E065D178
:1004600061E088819DD184E690E05FD181E0111147
:1004700001C080E0DF91CF911F910F910895AF925D
:10048000BF92DF92EF92FF920F931F93CF93DF9370
:1004900000D0CDB7DEB75C01F62EE42E29837A8337
:1004A00087DF60E4C501A2DFC50189DFC50180DF08
:1004B0002981622F63706054C50198DFDF2C0F2DF6
:1004C0007A81172F802F8D198E1530F4F8016191E4
:1004D0008F01C5018BDFF6CFC50171DFC50168DF74
:1004E000F50162816F706058C50180DFC5010F9012
:1004F0000F90DF91CF911F910F91FF90EF90DF90C0
:10050000BF90AF905CCF4F925F926F927F928F922D
:100510009F92AF92BF92CF92DF92EF920F931F9371
:10052000CF93DF9300D000D0CDB7DEB73C01FB0105
:10053000342F402F88E7A82E80E0B82ECE010196F8
:100540006C014C0111E0D5015E904E905D01CF0130
:10055000B201CCD1CB01009751F4211114C0112369
:1005600091F0882D8C19833071F0A0E00DC0A62F7A
:10057000AF70B0E0A858BF4FAC91B201A6D1E81B54
:10058000F90B10E001C0AFE3832F80788A2B330F83
:10059000D4018D934D01B0E7AB16B0E0BB0699F6E0
:1005A00064E070E0641B71096C0D7D1D2E2DC3018C
:1005B00066DF0F900F900F900F90DF91CF911F91FA
:1005C0000F91EF90DF90CF90BF90AF909F908F9062
:1005D0007F906F905F904F900895EF920F93E02E71
:1005E000022F242F40E08FDF0F91EF90089583B703
:1005F000887F83BF8AB58C7F81608ABD83B7877F00
:1006000083BF83B7887F836083BF089578941F92E8
:100610000F920FB60F9211242F933F938F939F93B6
:10062000AF93BF938091D2009091D300A091D4005A
:10063000B091D5003091D1002CE7230F2D3728F051
:100640002FEF230F0196A11DB11D2093D1008093A0
:10065000D2009093D300A093D400B093D5008091A2
:10066000D6009091D700A091D800B091D900019602
:10067000A11DB11D8093D6009093D700A093D80000
:10068000B093D900BF91AF919F918F913F912F91DE
:100690000F900FBE0F901F9018953FB7F894809160
:1006A000D6009091D700A091D800B091D9002FB575
:1006B00008B602FE05C02F3F19F00196A11DB11D1D
:1006C0003FBF6627782F892F9A2F620F711D811DDA
:1006D000911D42E0660F771F881F991F4A95D1F739
:1006E0000895CF92DF92EF92FF92CF93DF936B0149
:1006F0007C01D3DFEB01C114D104E104F10471F0FA
:10070000CCDF6C1B7D0B683E7340A8F381E0C81AF8
:10071000D108E108F108C851DC4FEDCFDF91CF914E
:10072000FF90EF90DF90CF9008958E7F82309105FB
:10073000E8F00000000000000000000000000000E1
:1007400000000000000000000000000000000000A9
:100750000000000000000000000000000000000099
:1007600000000000000000000297E0CF0895789498
:1007700080B7806880BF80B7806480BF8CB580649C
:100780008CBD8FEF8DBD80B7807F876080BF89B7BC
:10079000846089BF2CDF86B1876086B9379A089557
:1007A000CF93DF9390E0FC01E25EFF4F2491FC01C8
:1007B000EC5DFF4F8491882339F190E0FC01E25D0C
:1007C000FF4FA491B0E0FC01E45DFF4F8491611103
:1007D00006C09FB7F8948C912095822313C0623095
:1007E00069F4C82FD0E09FB7F8948C91322F3095E0
:1007F00083238C938881822B888305C09FB7F894CC
:100800008C91822B8C939FBFDF91CF910895A82F5D
:10081000B0E0FD01E25EFF4F9491FD01EC5DFF4F02
:10082000E491EE2311F1811103C08AB58F7304C0E6
:10083000813021F48AB58F7C8ABD05C0843019F4DB
:100840008CB58F7C8CBDF0E0E45DFF4FA491B0E0EF
:100850002FB7611105C0F8948C919095892303C03E
:10086000F8948C91892B8C932FBF0895282F30E01A
:10087000F901E25EFF4F9491F901EC5DFF4FE491C5
:10088000EE23E1F0811103C08AB58F7304C081307B
:1008900021F48AB58F7C8ABD05C0843019F48CB5EB
:1008A0008F7C8CBDF0E0E65DFF4FE491F0E02081AD
:1008B000292381E090E021F480E0089580E090E039
:1008C000089555DF11DC45DDFECF0024552704C017
:1008D000080E591F880F991F009729F07695679584
:1008E000B8F37105B9F7802D952F089597FB072E62
:1008F00016F4009406D077FD08D00BD007FC05D085
:100900003EF4909581959F4F0895709561957F4F26
:100910000895AA1BBB1B51E107C0AA1FBB1FA61746
:10092000B70710F0A61BB70B881F991F5A95A9F798
:1009300080959095BC01CD010895EE0FFF1F0590A5
:10094000F491E02D0994F894FFCF7177303840404E
:100950004040004040004000004001000A006400A8
:10096000E8033F065B4F666D7D077F6F777C395EDE
:100970007971FFFFFFFFFFFFFFFFFFFFFFFFFFFF9B
:10098000FFFFFFFFFFFFFFFFFFFFFFFFFFFFFFFF77
:10099000FFFFFFFFFFFFFFFFFFFFFFFFFFFFFFFF67
:1009A000FFFFFFFFFFFFFFFFFFFFFFFFFFFFFFFF57
:1009B000FFFFFFFFFFFFFFFFFFFFFFFFFFFFFFFF47
:10177000FFFFFFFFFFFFFFFFFFFF99005AC47EC47A
:1017800022C040C06CC03EC03DC03CC03BC03AC05F
:1017900039C038C037C036C035C034C033C0040388
:1017A000090412011001FF000008D01653070601BA
:1017B000000000010902120001010080320904004A
:1017C00000000000000011241FBECFE5D2E0DEBF04
:1017D000CDBF00EB0F9307E00F9310E0A0E6B0E061
:1017E000ECEDFFE102C005900D92A636B107D9F7E6
:1017F00010E0A6E6B0E001C01D92AC39B107E1F7F8
:10180000E7D1EAC3BDCFA82FB92F80E090E041E037
:1018100050EA609530E009C02D9182279795879511
:1018200010F084279527305EC8F36F5FA8F3089502
:10183000EADF8D939D930895A6E088279927AA95BE
:1018400069F00197E1F3B399FCCFB39BFECF81E040
:101850009927A6B3019611F0A871D9F70895CF93EF
:10186000CFB7CF93C0915F02C03B21F4C0915E021D
:10187000C73021F0CF91CFBFCF9181CFCC27C39577
:10188000B39BE9F7B39B0BC0B39B09C0B39B07C0E5
:10189000B39B05C0B39B03C0B39B01C0D3C00F92E1
:1018A000DF93C0917F00DD27CA57DF4F012EB39B26
:1018B00003C0DF910F90E6CF2F930F931F934F93A9
:1018C0002FEF4F6F06B303FB20F95F933F9350E078
:1018D0003BE065C016B30126502953FDC89556B3A9
:1018E000012703FB25F92F7306B3B1F0502710270A
:1018F00013FB26F906B22230F0F000C016B3012720
:1019000003FB27F90126502906B22430E8F54F776A
:10191000206816B30000F6CF50274F7D206206B234
:10192000102F000000C006B300265029102713FB1B
:1019300026F906B2E2CF4F7B06B3206400C0DACFAF
:1019400001265029187106B269F14E7F2160012FDE
:1019500016B328C0002650294D7F06B22260102FF2
:1019600029C0012650294B7F06B22460012F2DC0CB
:1019700016B301265029477F2860000006B22EC00A
:101980004F7E06B3206130C0422706B3499300263C
:101990005029102706B24FEF13FB20F9297F16B309
:1019A00079F2187159F10126502906B2012703FB7B
:1019B00021F9237F06B371F2002650293150D0F06F
:1019C00006B2102713FB22F9277E16B351F2012627
:1019D0005029012703FB06B223F92F7C49F20000AE
:1019E00006B3102713FB24F90026502906B22F79DD
:1019F00039F270CF10E21ABF002717C03B50319563
:101A0000C31BD04010E21ABF0881033CF9F00B342D
:101A1000E9F020917D001981110F1213EDCF0936E5
:101A200051F10D3211F0013E39F7009384003F91DE
:101A30005F914F911F910F912F91DF910F90CAB736
:101A4000C5FD1DCFCF91CFBFCF91189520918400B8
:101A5000222369F310918200112321F5343022F101
:101A60003093820020937E0010917F003BE0311B79
:101A700030937F0019C00091820001309CF40AE588
:101A80003091600034FD11C000936000C2E7D0E0E7
:101A900010C0052710E000C021C0052710E0C89540
:101AA00008BB14C03AE501C032ED032EC0E0D0E01F
:101AB00032E017B31861C39A08B317BB58E120E8A6
:101AC0004FEF20FF052708BB279517951C3F28F7E8
:101AD00000004552B0F720FF0527279508BB179552
:101AE0001C3FB8F629913A9561F7077E1091830063
:101AF000110F08BBC250D04011F010937D0010E2CE
:101B00001ABF086017B3177E402F477E54E05A95DE
:101B1000F1F708BB17BB48BB8ACF81E0809369000F
:101B2000F894E0917000F0917100329785E0809315
:101B30005700E89507B600FCFDCF789408959C0106
:101B4000E0917000F0917100309789F1E430F10577
:101B5000F1F087E1EC37F80739F420916C0030910F
:101B60006D002E5B3B4F15C087E1EE37F80739F467
:101B700020916E0030916F002D5B3B4F0AC087E1D2
:101B8000EA37F80731F481B7282F30E002C02FEB95
:101B90003BECF89481E0090180935700E89511240B
:101BA00078943296F0937100E0937000089581E18B
:101BB00080935700E895EBCF8FEF9FEFC0DF8091C8
:101BC0007000909171008F739070892BA9F7A5CF49
:101BD0001F93CF93DF9388E10FB6F89481BD11BCBA
:101BE0000FBEE0E0F0E0859194918F5B9B4C39F45F
:101BF000E4E0F0E0859194918F5B9B4C09F0DCDF91
:101C00001092710010927000AC9A8BB780628BBFFB
:101C1000BB9A88E893E1ECE9F1E03197F1F701979D
:101C2000D1F7BB98789410918200135017FDD4C05F
:101C300080917F00CCE0D0E0C81BD109CA57DF4FAC
:101C400080917E008D3209F091C0183009F0C2C039
:101C500083EC809372008AE58093600010926B00A1
:101C60002881822F80769981882329F1109267003C
:101C700010926600992341F482E690E090938100EF
:101C80008093800024E068C0913051F48C819D8164
:101C9000909371008093700027FD59C09FEF58C04A
:101CA00080916800923011F4816001C0846080935B
:101CB000680020E051C08A8110927B00992331F4A2
:101CC00010927C008BE790E022E03CC0953019F444
:101CD0008093830034C0963011F58B81813019F4E4
:101CE00082EA97E104C0823041F484EB97E190935B
:101CF00081008093800022E10EC0833059F48A81F4
:101D0000882341F48EE997E19093810080938000CD
:101D100024E001C020E080E480936B001DC0983077
:101D200019F485E890E009C0993019F48093850092
:101D300006C09A3021F48BE790E021E003C08BE7E6
:101D400090E020E0909381008093800005C09E8108
:101D500080E880936B0007C08F81882319F49E81EF
:101D6000921708F0922F9093610034C080916B001D
:101D700087FF30C08091700090917100009739F416
:101D80008881998190936D0080936C000DC08430A0
:101D9000910539F48881998190936F0080936E004A
:101DA00003C08058974138F488819981C8DE125069
:101DB00011F02296DFCF80917000909171008F73A7
:101DC0009070892B39F4809168008260809368005C
:101DD00010926100109282008091600084FF3CC0EC
:101DE000809161008F3FC1F1182F893008F018E011
:101DF000811B809361008091720098E8892780930D
:101E000072001123E1F0E0918000F0918100809157
:101E10006B0086FF09C0912FA3E7B0E084918D93FA
:101E200031969150D9F707C0912FA3E7B0E0819187
:101E30008D939150E1F7F0938100E093800083E768
:101E400090E0612FF5DC612F6C5F6C3019F08FEF43
:101E5000809361006093600094E186B3887131F4EF
:101E60009150D9F71092830010927D0010E09923D1
:101E700009F411E080916A00811739F0112319F4F7
:101E8000F8946BD0789410936A008CE991E00197F4
:101E9000F1F780916600909167000196909367003A
:101EA0008093660080916800182F80FF14C0F8941A
:101EB000E0E8F7E1E054F04083E080935700E895D4
:101EC00007B600FCFDCF3097A9F710927100109271
:101ED000700072DE789411FF0FC08AE390E20197E0
:101EE000F1F780917000909171008F739070892B41
:101EF00011F062DE01C011DE12FD0AC0109268000E
:101F000080916600909167008055934C08F48BCEC9
:101F100082E291EA0197F1F7F8941BBE15BA10928C
:101F20005F0210925E02EAE7F7E19491892F8150F7
:101F30008E3F20F00DC081B7815081BF81B79817C7
:101F4000D0F303C081B78F5F81BF81B78917D0F30A
:101F500015CCDF91CF911F910895FF920F931F939E
:101F6000CF93DF9380E8F82E00E0C0E0D0E0102FA0
:101F70001F0D11BF61DC29E0843392070CF0102F94
:101F8000F6942196C830D10511F0012FF0CF1150F1
:101F900011BF1F5F012FEC0110C04EDC845399402C
:101FA00097FF03C0909581959F4F8C179D0714F460
:101FB00001B7EC0181B78F5F81BF21B730E0812F7E
:101FC00090E001968217930744F701BFDF91CF910C
:101FD0001F910F91FF900895F894FFCF5AFF177C3F
:101FE0004008FFFFFFFFFFFFFFFFFFFFFFFFFFFFB7
:101FF000FFFFFFFFFFFFFFFFFFFFFFFFFFFFFFFFF1
:00000001FF
